{
  "contractName": "surefly",
  "abi": [
    {
      "constant": true,
      "inputs": [],
      "name": "userCount",
      "outputs": [
        {
          "name": "",
          "type": "uint256"
        }
      ],
      "payable": false,
      "stateMutability": "view",
      "type": "function"
    },
    {
      "constant": false,
      "inputs": [
        {
          "name": "adr",
          "type": "address"
        }
      ],
      "name": "userBoarded",
      "outputs": [
        {
          "name": "",
          "type": "bool"
        }
      ],
      "payable": false,
      "stateMutability": "nonpayable",
      "type": "function"
    },
    {
      "constant": false,
      "inputs": [
        {
          "name": "adr",
          "type": "address"
        }
      ],
      "name": "cancelFlight",
      "outputs": [],
      "payable": false,
      "stateMutability": "nonpayable",
      "type": "function"
    },
    {
      "constant": false,
      "inputs": [
        {
          "name": "_maxPayout",
          "type": "uint256"
        },
        {
          "name": "_minPayout",
          "type": "uint256"
        },
        {
          "name": "_initialPremium",
          "type": "uint256"
        },
        {
          "name": "_prob",
          "type": "uint256"
        }
      ],
      "name": "addUser",
      "outputs": [
        {
          "name": "success",
          "type": "bool"
        }
      ],
      "payable": false,
      "stateMutability": "nonpayable",
      "type": "function"
    },
    {
      "constant": true,
      "inputs": [
        {
          "name": "adr",
          "type": "address"
        }
      ],
      "name": "queryPoolSize",
      "outputs": [
        {
          "name": "",
          "type": "uint256"
        }
      ],
      "payable": false,
      "stateMutability": "view",
      "type": "function"
    },
    {
      "constant": false,
      "inputs": [
        {
          "name": "adr",
          "type": "address"
        }
      ],
      "name": "flightDeparted",
      "outputs": [
        {
          "name": "",
          "type": "bool"
        }
      ],
      "payable": false,
      "stateMutability": "nonpayable",
      "type": "function"
    },
    {
      "constant": false,
      "inputs": [
        {
          "name": "adr",
          "type": "address"
        },
        {
          "name": "amount",
          "type": "uint256"
        }
      ],
      "name": "invest",
      "outputs": [
        {
          "name": "",
          "type": "bool"
        }
      ],
      "payable": false,
      "stateMutability": "nonpayable",
      "type": "function"
    },
    {
      "constant": false,
      "inputs": [
        {
          "name": "adr",
          "type": "address"
        }
      ],
      "name": "cancelPolicy",
      "outputs": [
        {
          "name": "",
          "type": "bool"
        }
      ],
      "payable": false,
      "stateMutability": "nonpayable",
      "type": "function"
    },
    {
      "constant": true,
      "inputs": [],
      "name": "investorCount",
      "outputs": [
        {
          "name": "",
          "type": "uint256"
        }
      ],
      "payable": false,
      "stateMutability": "view",
      "type": "function"
    },
    {
      "constant": true,
      "inputs": [],
      "name": "listAllAvailablePolicies",
      "outputs": [
        {
          "name": "",
          "type": "address[]"
        }
      ],
      "payable": false,
      "stateMutability": "view",
      "type": "function"
    },
    {
      "inputs": [],
      "payable": false,
      "stateMutability": "nonpayable",
      "type": "constructor"
    }
  ],
  "bytecode": "0x6060604052341561000f57600080fd5b6000600281905550611961806100266000396000f3006060604052600436106100a4576000357c0100000000000000000000000000000000000000000000000000000000900463ffffffff16806307973ccf146100a95780633466ac7c146100d2578063530bdb9514610123578063620c53cd1461015c578063833ed92a146101b2578063b8e329a5146101ff578063b9b8c24614610250578063ba3c69b6146102aa578063d7e64c00146102fb578063e313486714610324575b600080fd5b34156100b457600080fd5b6100bc61038e565b6040518082815260200191505060405180910390f35b34156100dd57600080fd5b610109600480803573ffffffffffffffffffffffffffffffffffffffff16906020019091905050610394565b604051808215151515815260200191505060405180910390f35b341561012e57600080fd5b61015a600480803573ffffffffffffffffffffffffffffffffffffffff1690602001909190505061040b565b005b341561016757600080fd5b61019860048080359060200190919080359060200190919080359060200190919080359060200190919050506104cc565b604051808215151515815260200191505060405180910390f35b34156101bd57600080fd5b6101e9600480803573ffffffffffffffffffffffffffffffffffffffff169060200190919050506106f1565b6040518082815260200191505060405180910390f35b341561020a57600080fd5b610236600480803573ffffffffffffffffffffffffffffffffffffffff1690602001909190505061074f565b604051808215151515815260200191505060405180910390f35b341561025b57600080fd5b610290600480803573ffffffffffffffffffffffffffffffffffffffff16906020019091908035906020019091905050610910565b604051808215151515815260200191505060405180910390f35b34156102b557600080fd5b6102e1600480803573ffffffffffffffffffffffffffffffffffffffff16906020019091905050610c9d565b604051808215151515815260200191505060405180910390f35b341561030657600080fd5b61030e610d66565b6040518082815260200191505060405180910390f35b341561032f57600080fd5b610337610d6c565b6040518080602001828103825283818151815260200191508051906020019060200280838360005b8381101561037a57808201518184015260208101905061035f565b505050509050019250505060405180910390f35b60025481565b600060018060008060008673ffffffffffffffffffffffffffffffffffffffff1673ffffffffffffffffffffffffffffffffffffffff168152602001908152602001600020548152602001908152602001600020600a0160016101000a81548160ff02191690831515021790555060019050919050565b6003600160008060008573ffffffffffffffffffffffffffffffffffffffff1673ffffffffffffffffffffffffffffffffffffffff16815260200190815260200160002054815260200190815260200160002060070160006101000a81548160ff0219169083600481111561047c57fe5b02179055506104c86000808373ffffffffffffffffffffffffffffffffffffffff1673ffffffffffffffffffffffffffffffffffffffff16815260200190815260200160002054610efc565b5050565b60006002546000803373ffffffffffffffffffffffffffffffffffffffff1673ffffffffffffffffffffffffffffffffffffffff168152602001908152602001600020819055503360016000600254815260200190815260200160002060000160006101000a81548173ffffffffffffffffffffffffffffffffffffffff021916908373ffffffffffffffffffffffffffffffffffffffff16021790555084600160006002548152602001908152602001600020600101819055508360016000600254815260200190815260200160002060020181905550600060016000600254815260200190815260200160002060030181905550826001600060025481526020019081526020016000206004018190555082600160006002548152602001908152602001600020600601819055508160016000600254815260200190815260200160002060050181905550600060016000600254815260200190815260200160002060070160006101000a81548160ff0219169083600481111561064e57fe5b02179055506000600160006002548152602001908152602001600020600a0160006101000a81548160ff0219169083151502179055506000600160006002548152602001908152602001600020600a0160016101000a81548160ff0219169083151502179055506000600160006002548152602001908152602001600020600b018190555060026000815480929190600101919050555060019050949350505050565b6000600160008060008573ffffffffffffffffffffffffffffffffffffffff1673ffffffffffffffffffffffffffffffffffffffff168152602001908152602001600020548152602001908152602001600020600301549050919050565b600060018060008060008673ffffffffffffffffffffffffffffffffffffffff1673ffffffffffffffffffffffffffffffffffffffff168152602001908152602001600020548152602001908152602001600020600a0160006101000a81548160ff021916908315150217905550600015156107ca83610394565b1515141561084c5760018060008060008673ffffffffffffffffffffffffffffffffffffffff1673ffffffffffffffffffffffffffffffffffffffff16815260200190815260200160002054815260200190815260200160002060070160006101000a81548160ff0219169083600481111561084257fe5b02179055506108c3565b6002600160008060008673ffffffffffffffffffffffffffffffffffffffff1673ffffffffffffffffffffffffffffffffffffffff16815260200190815260200160002054815260200190815260200160002060070160006101000a81548160ff021916908360048111156108bd57fe5b02179055505b61090a6000808473ffffffffffffffffffffffffffffffffffffffff1673ffffffffffffffffffffffffffffffffffffffff16815260200190815260200160002054610efc565b50919050565b60006109596000808573ffffffffffffffffffffffffffffffffffffffff1673ffffffffffffffffffffffffffffffffffffffff1681526020019081526020016000205461177c565b15151561096557600080fd5b6000600481111561097257fe5b600160008060008773ffffffffffffffffffffffffffffffffffffffff1673ffffffffffffffffffffffffffffffffffffffff16815260200190815260200160002054815260200190815260200160002060070160009054906101000a900460ff1660048111156109df57fe5b1415156109eb57600080fd5b610a326000808573ffffffffffffffffffffffffffffffffffffffff1673ffffffffffffffffffffffffffffffffffffffff168152602001908152602001600020546117c5565b151515610a3e57600080fd5b610a856000808573ffffffffffffffffffffffffffffffffffffffff1673ffffffffffffffffffffffffffffffffffffffff16815260200190815260200160002054611803565b151515610a9157600080fd5b81600160008060008773ffffffffffffffffffffffffffffffffffffffff1673ffffffffffffffffffffffffffffffffffffffff16815260200190815260200160002054815260200190815260200160002060080160003373ffffffffffffffffffffffffffffffffffffffff1673ffffffffffffffffffffffffffffffffffffffff1681526020019081526020016000208190555033600160008060008773ffffffffffffffffffffffffffffffffffffffff1673ffffffffffffffffffffffffffffffffffffffff1681526020019081526020016000205481526020019081526020016000206009016000600354815260200190815260200160002060006101000a81548173ffffffffffffffffffffffffffffffffffffffff021916908373ffffffffffffffffffffffffffffffffffffffff160217905550600160008060008673ffffffffffffffffffffffffffffffffffffffff1673ffffffffffffffffffffffffffffffffffffffff168152602001908152602001600020548152602001908152602001600020600b016000815480929190600101919050555081600160008060008773ffffffffffffffffffffffffffffffffffffffff1673ffffffffffffffffffffffffffffffffffffffff168152602001908152602001600020548152602001908152602001600020600301600082825401925050819055506001905092915050565b60006004600160008060008673ffffffffffffffffffffffffffffffffffffffff1673ffffffffffffffffffffffffffffffffffffffff16815260200190815260200160002054815260200190815260200160002060070160006101000a81548160ff02191690836004811115610d1057fe5b0217905550610d5c6000808473ffffffffffffffffffffffffffffffffffffffff1673ffffffffffffffffffffffffffffffffffffffff16815260200190815260200160002054610efc565b5060019050919050565b60035481565b610d746118d0565b600080600090505b60025481111515610e6f5760006004811115610d9457fe5b6001600083815260200190815260200160002060070160009054906101000a900460ff166004811115610dc357fe5b1415610e6257818054806001018281610ddc91906118e4565b916000526020600020900160006001600085815260200190815260200160002060000160009054906101000a900473ffffffffffffffffffffffffffffffffffffffff16909190916101000a81548173ffffffffffffffffffffffffffffffffffffffff021916908373ffffffffffffffffffffffffffffffffffffffff160217905550505b8080600101915050610d7c565b81805480602002602001604051908101604052809291908181526020018280548015610ef057602002820191906000526020600020905b8160009054906101000a900473ffffffffffffffffffffffffffffffffffffffff1673ffffffffffffffffffffffffffffffffffffffff1681526020019060010190808311610ea6575b50505050509250505090565b60008060008060006004811115610f0f57fe5b6001600087815260200190815260200160002060070160009054906101000a900460ff166004811115610f3e57fe5b14151515610f4b57600080fd5b610f5485611841565b15610f925760036001600087815260200190815260200160002060070160006101000a81548160ff02191690836004811115610f8c57fe5b02179055505b60646001600087815260200190815260200160002060030154600160008881526020019081526020016000206005015402811515610fcc57fe5b04600160008781526020019081526020016000206006018190555060016004811115610ff457fe5b6001600087815260200190815260200160002060070160009054906101000a900460ff16600481111561102357fe5b14156111ea57611080306001600088815260200190815260200160002060000160009054906101000a900473ffffffffffffffffffffffffffffffffffffffff16600160008981526020019081526020016000206003015461188b565b600090505b60016000868152602001908152602001600020600b01548110156111e95760016000868152602001908152602001600020600901600082815260200190815260200160002060009054906101000a900473ffffffffffffffffffffffffffffffffffffffff16915060016000868152602001908152602001600020600301546001600087815260200190815260200160002060080160008473ffffffffffffffffffffffffffffffffffffffff1673ffffffffffffffffffffffffffffffffffffffff1681526020019081526020016000205460016000888152602001908152602001600020600601540281151561117957fe5b046001600087815260200190815260200160002060080160008473ffffffffffffffffffffffffffffffffffffffff1673ffffffffffffffffffffffffffffffffffffffff168152602001908152602001600020540392506111dc30838561188b565b8080600101915050611085565b5b600260048111156111f757fe5b600160008060008673ffffffffffffffffffffffffffffffffffffffff1673ffffffffffffffffffffffffffffffffffffffff16815260200190815260200160002054815260200190815260200160002060070160009054906101000a900460ff16600481111561126457fe5b14156113d457600090505b60016000868152602001908152602001600020600b01548110156113d35760016000868152602001908152602001600020600901600082815260200190815260200160002060009054906101000a900473ffffffffffffffffffffffffffffffffffffffff16915060016000868152602001908152602001600020600301546001600087815260200190815260200160002060080160008473ffffffffffffffffffffffffffffffffffffffff1673ffffffffffffffffffffffffffffffffffffffff1681526020019081526020016000205460016000888152602001908152602001600020600601540281151561136357fe5b046001600087815260200190815260200160002060080160008473ffffffffffffffffffffffffffffffffffffffff1673ffffffffffffffffffffffffffffffffffffffff168152602001908152602001600020540192506113c630838561188b565b808060010191505061126f565b5b600360048111156113e157fe5b600160008060008673ffffffffffffffffffffffffffffffffffffffff1673ffffffffffffffffffffffffffffffffffffffff16815260200190815260200160002054815260200190815260200160002060070160009054906101000a900460ff16600481111561144e57fe5b1415611587576114ab306001600088815260200190815260200160002060000160009054906101000a900473ffffffffffffffffffffffffffffffffffffffff16600160008981526020019081526020016000206004015461188b565b600090505b60016000868152602001908152602001600020600b01548110156115865760016000868152602001908152602001600020600901600082815260200190815260200160002060009054906101000a900473ffffffffffffffffffffffffffffffffffffffff1691506001600086815260200190815260200160002060080160008373ffffffffffffffffffffffffffffffffffffffff1673ffffffffffffffffffffffffffffffffffffffff16815260200190815260200160002054925061157930838561188b565b80806001019150506114b0565b5b60048081111561159357fe5b600160008060008673ffffffffffffffffffffffffffffffffffffffff1673ffffffffffffffffffffffffffffffffffffffff16815260200190815260200160002054815260200190815260200160002060070160009054906101000a900460ff16600481111561160057fe5b141561177057600090505b60016000868152602001908152602001600020600b015481101561176f5760016000868152602001908152602001600020600901600082815260200190815260200160002060009054906101000a900473ffffffffffffffffffffffffffffffffffffffff16915060016000868152602001908152602001600020600301546001600087815260200190815260200160002060080160008473ffffffffffffffffffffffffffffffffffffffff1673ffffffffffffffffffffffffffffffffffffffff168152602001908152602001600020546001600088815260200190815260200160002060060154028115156116ff57fe5b046001600087815260200190815260200160002060080160008473ffffffffffffffffffffffffffffffffffffffff1673ffffffffffffffffffffffffffffffffffffffff1681526020019081526020016000205401925061176230838561188b565b808060010191505061160b565b5b60019350505050919050565b60006001600083815260200190815260200160002060010154600160008481526020019081526020016000206003015414156117bb57600190506117c0565b600090505b919050565b600060016000838152602001908152602001600020600a0160009054906101000a900460ff16156117f957600190506117fe565b600090505b919050565b600060016000838152602001908152602001600020600a0160019054906101000a900460ff1615611837576001905061183c565b600090505b919050565b6000600160008381526020019081526020016000206002015460016000848152602001908152602001600020600301541015156118815760019050611886565b600090505b919050565b8173ffffffffffffffffffffffffffffffffffffffff166108fc829081150290604051600060405180830381858888f1935050505015156118cb57600080fd5b505050565b602060405190810160405280600081525090565b81548183558181151161190b5781836000526020600020918201910161190a9190611910565b5b505050565b61193291905b8082111561192e576000816000905550600101611916565b5090565b905600a165627a7a72305820eecefc57be4e85d1f5a00ea1cb43142feb88457ff2850f33785bbdb91fcfb2250029",
  "source": "pragma solidity ^0.4.17;\n\ncontract surefly{\n    enum policyStatus {OPEN, MISSED, NOTMISSED, CANCELLED, TICKETCANCELLED}\n    struct user{\n        address adr;\n        uint256 maxPayout;\n        uint256 minPayout;\n        uint256 poolSize;\n        uint256 initialPremium;\n        uint256 prob;\n        uint256 finalPremium;\n        policyStatus status;\n        mapping (address => uint) investedAmountOf;\n        mapping(uint => address) investorAdrOf;\n        bool departed;\n        bool boarded;\n        bool flightCancelled;\n        bool ticketCancelled;\n        uint256 investorCount;\n    }\n    mapping(address => uint) idOf;\n    mapping (uint => user) users;\n    uint256 public userCount;\n    uint256 public investorCount;\n    //event() Pool Filled?\n    // Probability * 1.1 * 100\n\n    // Events?\n\n\n    function surefly() public {\n        userCount = 0;\n    }\n    //External\n    function addUser(uint256 _maxPayout, uint _minPayout, uint256 _initialPremium, uint256 _prob)public returns(bool success) {\n        idOf[msg.sender]=userCount;\n        users[userCount].adr = msg.sender;\n        users[userCount].maxPayout = _maxPayout;\n        users[userCount].minPayout = _minPayout;\n        users[userCount].poolSize = 0;\n        users[userCount].initialPremium = _initialPremium;\n        users[userCount].finalPremium = _initialPremium;\n        users[userCount].prob = _prob;\n        users[userCount].status = policyStatus.OPEN;\n        users[userCount].departed = false;\n        users[userCount].boarded = false;\n        users[userCount].investorCount = 0;\n        // users[userCount].flightCancelled = false;\n        // users[userCount].ticketCancelled = false;\n        userCount++;\n        return true;\n    }\n    //Internal\n    function isMaxPayoutReached(uint id) internal returns (bool) {\n        if(users[id].poolSize == users[id].maxPayout){\n            return true;\n        }\n        else \n        return false;\n    }\n    //Internal\n    function isMinPayoutReached(uint id) internal returns (bool) {\n        if(users[id].poolSize >= users[id].minPayout){\n            return true;\n        }\n        else \n        return false;\n    }\n    //Internal\n    function hasFlightDeparted(uint id) internal returns (bool) {\n        if(users[id].departed){\n            return true;\n        }\n        else \n        return false;\n    }\n    //Internal\n    function hasUserBoarded(uint id) internal returns (bool) {\n        if(users[id].boarded){\n            return true;\n        }\n        else \n        return false;\n    }\n    //External\n    function queryPoolSize(address adr) public constant returns (uint256) {\n        return users[idOf[adr]].poolSize;\n    }\n    //External\n    function listAllAvailablePolicies() public constant returns (address[]) { \n        address[] storage openUsers;\n        for (uint i=0; i<=userCount; i++){\n            if (users[i].status == policyStatus.OPEN) {\n               openUsers.push(users[i].adr); \n            }\n        } \n        return openUsers;\n    }\n    // TODO: What to return?\n    //External\n    function flightDeparted(address adr) public returns (bool) {\n        users[idOf[adr]].departed = true;\n        if(userBoarded(adr) == false){\n          users[idOf[adr]].status = policyStatus.MISSED;  \n        }\n        else\n        {\n            users[idOf[adr]].status = policyStatus.NOTMISSED;\n        }\n        payout(idOf[adr]);\n    }\n    //External\n    function userBoarded(address adr) public returns (bool) {\n        users[idOf[adr]].boarded = true;\n        return true;\n    }\n    //External\n    function cancelPolicy(address adr) public returns (bool){\n        users[idOf[adr]].status = policyStatus.TICKETCANCELLED;\n        payout(idOf[adr]);\n        return true;\n    }\n    //External\n    function cancelFlight(address adr) public {\n        users[idOf[adr]].status = policyStatus.CANCELLED;\n        payout(idOf[adr]);\n    }\n    function isMinRaised(uint id) internal returns (bool){\n        if(users[id].poolSize >= users[id].minPayout)\n        return true;\n        else\n        return false;\n    }\n\n    function invest(address adr, uint256 amount) public returns (bool) {\n        require(!isMaxPayoutReached(idOf[adr]));\n        //require(isMinPayoutReached(idOf[adr]));\n        require(users[idOf[adr]].status == policyStatus.OPEN);\n        require(!hasFlightDeparted(idOf[adr]));\n        require(!hasUserBoarded(idOf[adr]));\n        users[idOf[adr]].investedAmountOf[msg.sender] = amount;\n        users[idOf[adr]].investorAdrOf[investorCount] = msg.sender;\n        users[idOf[adr]].investorCount++;\n        users[idOf[adr]].poolSize += amount;\n        return true;\n    }\n    //if missed? if not? ()s\n    //Internal\n    function payout(uint id) internal returns (bool){\n        \n    require(users[id].status!= policyStatus.OPEN);\n\n        if(isMinRaised(id)) {\n            users[id].status = policyStatus.CANCELLED;\n        }\n       users[id].finalPremium = (users[id].prob * users[id].poolSize) / 100;\n       uint256 transferEtherAmount;\n       address adr;\n       uint i;\n       if(users[id].status == policyStatus.MISSED)\n        {\n            transferEther(address(this), users[id].adr, users[id].poolSize);\n            for( i=0; i<users[id].investorCount ; i++){\n                 adr = users[id].investorAdrOf[i];\n                 transferEtherAmount = users[id].investedAmountOf[adr] - (((users[id].finalPremium)*(users[id].investedAmountOf[adr]))/users[id].poolSize);\n                transferEther(address(this), adr, transferEtherAmount);\n            }\n        }\n        if(users[idOf[adr]].status == policyStatus.NOTMISSED)\n        {\n            //transferEther(address(this), users[id].adr, users[id].poolSize);\n            for(i=0; i<users[id].investorCount ; i++){\n                 adr = users[id].investorAdrOf[i];\n               transferEtherAmount = users[id].investedAmountOf[adr] + (((users[id].finalPremium)*(users[id].investedAmountOf[adr]))/users[id].poolSize);\n                transferEther(address(this), adr, transferEtherAmount);\n            }\n        }\n\n        if(users[idOf[adr]].status == policyStatus.CANCELLED)\n        {\n            transferEther(address(this), users[id].adr, users[id].initialPremium);\n            for( i=0; i<users[id].investorCount ; i++){\n                 adr = users[id].investorAdrOf[i];\n                transferEtherAmount = users[id].investedAmountOf[adr];\n                transferEther(address(this), adr, transferEtherAmount);\n            }\n        }\n        if(users[idOf[adr]].status == policyStatus.TICKETCANCELLED)\n        {\n            for( i=0; i<users[id].investorCount ; i++){\n                 adr = users[id].investorAdrOf[i];\n                transferEtherAmount = users[id].investedAmountOf[adr] + users[id].finalPremium*users[id].investedAmountOf[adr]/users[id].poolSize;\n                transferEther(address(this), adr, transferEtherAmount);\n            }\n        }\n        return true;\n    }\n    //Internal\n    function transferEther(address sender, address reciever, uint256 amount) internal {\n        reciever.transfer(amount);\n    }\n\n}",
  "sourcePath": "/Users/siddharthbarpanda/Desktop/surefly/truffle/contracts/surefly.sol",
  "compiler": {
    "name": "solc",
    "version": "0.4.18+commit.9cf6e910.Emscripten.clang"
  },
  "schemaVersion": "1.0.1",
  "updatedAt": "2017-11-12T11:49:33.939Z"
}